{
  "contractName": "dest",
  "abi": [
    {
      "constant": false,
      "inputs": [
        {
          "name": "addr",
          "type": "address"
        },
        {
          "name": "wallet",
          "type": "address"
        }
      ],
      "name": "del",
      "outputs": [],
      "payable": false,
      "stateMutability": "nonpayable",
      "type": "function"
    }
  ],
  "bytecode": "0x608060405234801561001057600080fd5b5061018b806100206000396000f300608060405260043610610041576000357c0100000000000000000000000000000000000000000000000000000000900463ffffffff168063615e159014610046575b600080fd5b34801561005257600080fd5b506100a7600480360381019080803573ffffffffffffffffffffffffffffffffffffffff169060200190929190803573ffffffffffffffffffffffffffffffffffffffff1690602001909291905050506100a9565b005b8173ffffffffffffffffffffffffffffffffffffffff1662f55d9d826040518263ffffffff167c0100000000000000000000000000000000000000000000000000000000028152600401808273ffffffffffffffffffffffffffffffffffffffff1673ffffffffffffffffffffffffffffffffffffffff168152602001915050600060405180830381600087803b15801561014357600080fd5b505af1158015610157573d6000803e3d6000fd5b5050505050505600a165627a7a72305820a2a04212420f36bc868a4dd7a72282d579002ae81dac320cb3a17152c6e9fb970029",
  "source": "\npragma solidity ^0.4.21;\n\n\n\nimport './Token.sol';\n\n\ncontract dest {\n\n  \nfunction del(address addr, address wallet) {      \n    Token(address(addr)).destroy(wallet);\n  }\n\n\n\n}\n",
  "sourcePath": "/home/alienware/바탕화면/Contracts/BITWEB_MainNet_PrivateSale/contracts/dest.sol",
  "compiler": {
    "name": "solc",
    "version": "0.4.24+commit.e67f0147.Emscripten.clang"
  },
  "schemaVersion": "2.0.1",
  "updatedAt": "2018-10-08T01:48:10.222Z"
}